{
  "contractName": "AaveDeFi",
  "abi": [
    {
      "inputs": [],
      "stateMutability": "nonpayable",
      "type": "constructor"
    },
    {
      "anonymous": false,
      "inputs": [
        {
          "indexed": false,
          "internalType": "uint256",
          "name": "ethAmountDeposited",
          "type": "uint256"
        },
        {
          "indexed": false,
          "internalType": "uint256",
          "name": "totalETHDeposits",
          "type": "uint256"
        },
        {
          "indexed": false,
          "internalType": "uint256",
          "name": "priceDAI",
          "type": "uint256"
        },
        {
          "indexed": false,
          "internalType": "uint256",
          "name": "safeMaxDAIBorrow",
          "type": "uint256"
        },
        {
          "indexed": false,
          "internalType": "uint256",
          "name": "totalDAIBorrows",
          "type": "uint256"
        }
      ],
      "name": "DepositBorrow",
      "type": "event"
    },
    {
      "inputs": [],
      "name": "daiEthprice",
      "outputs": [
        {
          "internalType": "uint256",
          "name": "",
          "type": "uint256"
        }
      ],
      "stateMutability": "view",
      "type": "function"
    },
    {
      "inputs": [],
      "name": "lendingPool",
      "outputs": [
        {
          "internalType": "contract ILendingPool",
          "name": "",
          "type": "address"
        }
      ],
      "stateMutability": "view",
      "type": "function"
    },
    {
      "inputs": [],
      "name": "name",
      "outputs": [
        {
          "internalType": "string",
          "name": "",
          "type": "string"
        }
      ],
      "stateMutability": "view",
      "type": "function"
    },
    {
      "inputs": [],
      "name": "priceOracle",
      "outputs": [
        {
          "internalType": "contract IPriceOracle",
          "name": "",
          "type": "address"
        }
      ],
      "stateMutability": "view",
      "type": "function"
    },
    {
      "inputs": [],
      "name": "provider",
      "outputs": [
        {
          "internalType": "contract ILendingPoolAddressesProvider",
          "name": "",
          "type": "address"
        }
      ],
      "stateMutability": "view",
      "type": "function"
    },
    {
      "inputs": [
        {
          "internalType": "address",
          "name": "",
          "type": "address"
        }
      ],
      "name": "totalDAIBorrows",
      "outputs": [
        {
          "internalType": "uint256",
          "name": "",
          "type": "uint256"
        }
      ],
      "stateMutability": "view",
      "type": "function"
    },
    {
      "inputs": [
        {
          "internalType": "address",
          "name": "",
          "type": "address"
        }
      ],
      "name": "totalETHDeposits",
      "outputs": [
        {
          "internalType": "uint256",
          "name": "",
          "type": "uint256"
        }
      ],
      "stateMutability": "view",
      "type": "function"
    },
    {
      "inputs": [],
      "name": "wethGateway",
      "outputs": [
        {
          "internalType": "contract IWETHGateway",
          "name": "",
          "type": "address"
        }
      ],
      "stateMutability": "view",
      "type": "function"
    },
    {
      "stateMutability": "payable",
      "type": "receive"
    },
    {
      "inputs": [
        {
          "internalType": "uint256",
          "name": "safeMaxDAIBorrow",
          "type": "uint256"
        }
      ],
      "name": "borrowDAIAgainstETH",
      "outputs": [],
      "stateMutability": "payable",
      "type": "function"
    }
  ],
  "bytecode": "0x60c0604052600c60808190526b4d592041617665204465466960a01b60a090815261002d91600091906101d4565b5034801561003a57600080fd5b50600480546001600160a01b03191673b53c1a33016b2dc2ff3653530bff1848a515c8c5908117825560408051630261bf8b60e01b815290519192630261bf8b9282820192602092908290030181865afa15801561009c573d6000803e3d6000fd5b505050506040513d601f19601f820116820180604052508101906100c0919061026d565b600880546001600160a01b03929092166001600160a01b03199283168117909155600580548316909117905560068054821673cc9a0b7c43dc2a5f023bb9b738e45b0ef6b06e0417905560078054821673a50ba011c48153de246e5192c8f9258a2ba79ca9908117909155600a80548316736b175474e89094c44da98b954eedeac495271d0f9081179091556009805490931673030ba81f1c18d280636f32af80b9aad02cf0854e1790925560405163b3596f0760e01b815260048101929092529063b3596f0790602401602060405180830381865afa1580156101a8573d6000803e3d6000fd5b505050506040513d601f19601f820116820180604052508101906101cc919061029d565b6003556102f0565b8280546101e0906102b6565b90600052602060002090601f0160209004810192826102025760008555610248565b82601f1061021b57805160ff1916838001178555610248565b82800160010185558215610248579182015b8281111561024857825182559160200191906001019061022d565b50610254929150610258565b5090565b5b808211156102545760008155600101610259565b60006020828403121561027f57600080fd5b81516001600160a01b038116811461029657600080fd5b9392505050565b6000602082840312156102af57600080fd5b5051919050565b600181811c908216806102ca57607f821691505b6020821081036102ea57634e487b7160e01b600052602260045260246000fd5b50919050565b6106d2806102ff6000396000f3fe60806040526004361061008a5760003560e01c8063a59a997311610059578063a59a99731461012e578063c49d0ef01461014e578063c5e10eef14610189578063d65745ae146101a9578063e9d106a9146101d657600080fd5b806306fdde0314610096578063085d4883146100c15780632630c12f146100f95780634f1b1ec91461011957600080fd5b3661009157005b600080fd5b3480156100a257600080fd5b506100ab6101ec565b6040516100b8919061054d565b60405180910390f35b3480156100cd57600080fd5b506004546100e1906001600160a01b031681565b6040516001600160a01b0390911681526020016100b8565b34801561010557600080fd5b506007546100e1906001600160a01b031681565b61012c6101273660046105a2565b61027a565b005b34801561013a57600080fd5b506005546100e1906001600160a01b031681565b34801561015a57600080fd5b5061017b6101693660046105bb565b60016020526000908152604090205481565b6040519081526020016100b8565b34801561019557600080fd5b506006546100e1906001600160a01b031681565b3480156101b557600080fd5b5061017b6101c43660046105bb565b60026020526000908152604090205481565b3480156101e257600080fd5b5061017b60035481565b600080546101f9906105eb565b80601f0160208091040260200160405190810160405280929190818152602001828054610225906105eb565b80156102725780601f1061024757610100808354040283529160200191610272565b820191906000526020600020905b81548152906001019060200180831161025557829003601f168201915b505050505081565b33600090815260016020526040902054610295903490610625565b3360009081526001602052604080822092909255600654600854925163474cf53d60e01b81526001600160a01b039384166004820152306024820181905260448201849052929360029392169063474cf53d9034906064016000604051808303818588803b15801561030657600080fd5b505af115801561031a573d6000803e3d6000fd5b5050600754600a5460405163b3596f0760e01b81526001600160a01b039182166004820152600095509116925063b3596f079150602401602060405180830381865afa15801561036e573d6000803e3d6000fd5b505050506040513d601f19601f82011682018060405250810190610392919061064b565b6003819055905060008190036103aa576103aa610664565b600554600a5460405163a415bcad60e01b81526001600160a01b039182166004820152602481018890526044810186905261ffff87166064820152848216608482015291169063a415bcad9060a401600060405180830381600087803b15801561041357600080fd5b505af1158015610427573d6000803e3d6000fd5b5050336000908152600260205260409020546104469250879150610625565b336000818152600260205260409081902092909255600a54915163a9059cbb60e01b81526004810191909152602481018790526001600160a01b0390911690819063a9059cbb906044016020604051808303816000875af11580156104af573d6000803e3d6000fd5b505050506040513d601f19601f820116820180604052508101906104d3919061067a565b6104dc57600080fd5b3360009081526001602090815260408083205460028352928190205481513481529283019390935281018490526060810188905260808101919091527f867b23624b4dbceb1fa82a503cb5900610bd95b713d95683a52603a18120d97c9060a00160405180910390a1505050505050565b600060208083528351808285015260005b8181101561057a5785810183015185820160400152820161055e565b8181111561058c576000604083870101525b50601f01601f1916929092016040019392505050565b6000602082840312156105b457600080fd5b5035919050565b6000602082840312156105cd57600080fd5b81356001600160a01b03811681146105e457600080fd5b9392505050565b600181811c908216806105ff57607f821691505b60208210810361061f57634e487b7160e01b600052602260045260246000fd5b50919050565b6000821982111561064657634e487b7160e01b600052601160045260246000fd5b500190565b60006020828403121561065d57600080fd5b5051919050565b634e487b7160e01b600052600160045260246000fd5b60006020828403121561068c57600080fd5b815180151581146105e457600080fdfea2646970667358221220735a444fc97d91caad99b9faa8f7aafe235caf2d6a896063b48c846e0d59705b64736f6c634300080e0033",
  "immutableReferences": {},
  "source": "// SPDX-License-Identifier: MIT\npragma solidity ^0.8.4;\n\nimport '@openzeppelin/contracts/token/ERC20/IERC20.sol';\nimport './ILendingPoolAddressesProvider.sol';\nimport './ILendingPool.sol';\nimport './IWETHGateway.sol';\nimport './IPriceOracle.sol';\n\ncontract AaveDeFi {\n\n    string public name = \"MY Aave DeFi\";\n\n    mapping(address => uint256) public totalETHDeposits;\n    mapping(address => uint256) public totalDAIBorrows;\n    uint256 public daiEthprice;\n    \n    ILendingPoolAddressesProvider public provider;\n    ILendingPool public lendingPool;\n    IWETHGateway public wethGateway;\n    IPriceOracle public priceOracle;\n    address addressLendingPool;\n    address aWETHTokenAddress;\n    address daiTokenAddress;\n\n\n    /// @notice DepositBorrow event emitted on success\n    event DepositBorrow(\n        uint256 ethAmountDeposited, \n        uint256 totalETHDeposits,\n        uint256 priceDAI, \n        uint256 safeMaxDAIBorrow, \n        uint256 totalDAIBorrows\n    );\n\n    constructor() {\n        provider = ILendingPoolAddressesProvider(address(0xB53C1a33016B2DC2fF3653530bfF1848a515c8c5)); \n        addressLendingPool = provider.getLendingPool();\n        lendingPool = ILendingPool(address(addressLendingPool));\n        wethGateway = IWETHGateway(address(0xcc9a0B7c43DC2a5F023Bb9b738E45B0Ef6B06E04));\n        priceOracle = IPriceOracle(address(0xA50ba011c48153De246E5192C8f9258A2ba79Ca9));\n        daiTokenAddress = address(0x6B175474E89094C44Da98b954EedeAC495271d0F);\n        aWETHTokenAddress = address(0x030bA81f1c18d280636F32af80b9AAd02Cf0854e);\n        daiEthprice = priceOracle.getAssetPrice(daiTokenAddress);\n    }\n   \n    receive() external payable {\n    }\n\n    /// @notice Function to deposit ETH collateral into Aave and immediately borrow maximum safe amount of DAI  \n    /// @dev DepositBorrow event emitted if successfully borrows \n    function borrowDAIAgainstETH(uint safeMaxDAIBorrow) external payable {\n\n        totalETHDeposits[msg.sender] = totalETHDeposits[msg.sender] + msg.value;\n        // input variables\n        uint16 referralCode = 0; \n        uint256 variableRate = 2; \n        address onBehalfOf = address(this); \n\n        // Deposit the ETH sent with msg.value transfering aWETH to onBehalfOf \n        wethGateway.depositETH{value: msg.value}(addressLendingPool,onBehalfOf, referralCode);\n\n        // Use Oracle to DAI/ETH \n        uint priceDAI = priceOracle.getAssetPrice(daiTokenAddress);\n        daiEthprice = priceDAI;\n        assert(priceDAI != 0);\n    \n        // Borrow the safeMaxDAIBorrow amount from protocol(calculated in frontend)\n        lendingPool.borrow(daiTokenAddress, safeMaxDAIBorrow, variableRate, referralCode, onBehalfOf);\n        totalDAIBorrows[msg.sender] = totalDAIBorrows[msg.sender] + safeMaxDAIBorrow;\n\n        IERC20 daiToken = IERC20(daiTokenAddress);\n        require(IERC20(daiToken).transfer(msg.sender, safeMaxDAIBorrow));\n          \n        emit DepositBorrow(\n            msg.value, \n            totalETHDeposits[msg.sender],\n            priceDAI, \n            safeMaxDAIBorrow, \n            totalDAIBorrows[msg.sender]\n        );\n        \n    }\n\n}\n\n\n \n",
  "sourcePath": "C:\\Users\\DanielBrown\\Desktop\\Web3\\aave_defi-main\\src\\contracts\\AaveDeFi.sol",
  "compiler": {
    "name": "solc",
    "version": "0.8.14+commit.80d49f37.Emscripten.clang"
  },
  "schemaVersion": "3.4.7",
  "updatedAt": "2022-05-24T22:51:40.203Z",
  "devdoc": {
    "kind": "dev",
    "methods": {
      "borrowDAIAgainstETH(uint256)": {
        "details": "DepositBorrow event emitted if successfully borrows "
      }
    },
    "version": 1
  },
  "userdoc": {
    "events": {
      "DepositBorrow(uint256,uint256,uint256,uint256,uint256)": {
        "notice": "DepositBorrow event emitted on success"
      }
    },
    "kind": "user",
    "methods": {
      "borrowDAIAgainstETH(uint256)": {
        "notice": "Function to deposit ETH collateral into Aave and immediately borrow maximum safe amount of DAI  "
      }
    },
    "version": 1
  }
}